101 1210572627867867867${nachaConfig.fh.fileCreDate}1241D094101ROZA BANK USA          WALL MART                WF    
5220WALL MART       BLUEBIRD            7867867867CCDTransfer        2307031841121057266559210
6223110796941300001006       1656900035102895545215300BILALM JONESNYLA      AB1121057261656900
705                   Extra Info related to Transaction                            00011656900
6223110796941300001006       1465855477102895545215300BILALM JONESNYLA      AB0121057261465855
6223110796941300001006       1321616133102895545215300BILALM JONESNYLA      AB0121057261321616
822000000400933239070000000000000044443716457867867867                        0121057266559210
5220WALL MART       BLUEBIRD            7867867867CCDTransfer        2307031841121057266559231
6223110796941300001006       1323157547102895545215300BILALM JONESNYLA      AB1121057261323157
705                   Extra Info related to Transaction                            00021323157
6223110796941300001006       1849116587102895545215300BILALM JONESNYLA      AB0121057261849116
822000000300622159380000000000000031722741347867867867                        0121057266559231
5220WALL MART       BLUEBIRD            7867867867CCDTransfer        2307031841121057266559232
6223110796941300001006       1313760615102895545215300BILALM JONESNYLA      AB0121057261313760
6223110796941300001006       1134320983102895545215300BILALM JONESNYLA      AB0121057261134320
6223110796941300001006       1855175665102895545215300BILALM JONESNYLA      AB0121057261855175
822000000300933239070000000000000043032572637867867867                        0121057266559232
9000003000002000000100248863752000000000000011919903042                                       
9999999999999999999999999999999999999999999999999999999999999999999999999999999999999999999999
9999999999999999999999999999999999999999999999999999999999999999999999999999999999999999999999